{
	"data": {
		"bytecode": {
			"linkReferences": {},
			"object": "608060405234801561001057600080fd5b5033601260006101000a81548173ffffffffffffffffffffffffffffffffffffffff021916908373ffffffffffffffffffffffffffffffffffffffff1602179055506111ac806100616000396000f3fe6080604052600436106100915760003560e01c8063ae176c8611610059578063ae176c8614610149578063bc1211d114610174578063ca3fbf2614610190578063dc126b66146101ac578063e4511adf146101c857610091565b806304278a77146100965780631bf481bd146100c357806387d91fa9146100df578063911d3d1214610112578063a1a5ba781461013f575b600080fd5b3480156100a257600080fd5b506100ab6101f5565b6040516100ba93929190610dac565b60405180910390f35b6100dd60048036038101906100d89190610b01565b61020d565b005b3480156100eb57600080fd5b506100f46103f6565b60405161010999989796959493929190610c44565b60405180910390f35b34801561011e57600080fd5b50610127610452565b60405161013693929190610dac565b60405180910390f35b61014761046a565b005b34801561015557600080fd5b5061015e610540565b60405161016b9190610d91565b60405180910390f35b61018e60048036038101906101899190610b01565b610548565b005b6101aa60048036038101906101a59190610ad4565b610731565b005b6101c660048036038101906101c19190610b01565b6108a9565b005b3480156101d457600080fd5b506101dd610a92565b6040516101ec93929190610dac565b60405180910390f35b600c8060000154908060010154908060020154905083565b826000800160006101000a81548173ffffffffffffffffffffffffffffffffffffffff021916908373ffffffffffffffffffffffffffffffffffffffff160217905550600060646007836102619190610e7b565b61026b9190610e4a565b905080826102799190610df4565b6000600701546102899190610df4565b600060070181905550600060070154600c60000181905550826000600701546102b29190610e4a565b6000600801546102c29190610df4565b600060080181905550600060080154600c6001018190555082600c600201819055506000479050600184101561032d576040517f08c379a000000000000000000000000000000000000000000000000000000000815260040161032490610d51565b60405180910390fd5b60008311801561033c57508083105b61037b576040517f08c379a000000000000000000000000000000000000000000000000000000000815260040161037290610cf1565b60405180910390fd5b8473ffffffffffffffffffffffffffffffffffffffff166108fc849081150290604051600060405180830381858888f193505050501580156103c1573d6000803e3d6000fd5b5082816103ce9190610ed5565b90506000600701546000600101546103e69190610df4565b6000600101819055505050505050565b60008060000160009054906101000a900473ffffffffffffffffffffffffffffffffffffffff16908060010154908060020154908060030154908060040154908060050154908060060154908060070154908060080154905089565b60098060000154908060010154908060020154905083565b60003414156104ae576040517f08c379a00000000000000000000000000000000000000000000000000000000081526004016104a590610d31565b60405180910390fd5b601260009054906101000a900473ffffffffffffffffffffffffffffffffffffffff1673ffffffffffffffffffffffffffffffffffffffff163373ffffffffffffffffffffffffffffffffffffffff161461053e576040517f08c379a000000000000000000000000000000000000000000000000000000000815260040161053590610cd1565b60405180910390fd5b565b600047905090565b826000800160006101000a81548173ffffffffffffffffffffffffffffffffffffffff021916908373ffffffffffffffffffffffffffffffffffffffff16021790555060006064600e8361059c9190610e7b565b6105a69190610e4a565b905080826105b49190610df4565b6000600301546105c49190610df4565b600060030181905550600060030154600960000181905550826000600301546105ed9190610e4a565b6000600401546105fd9190610df4565b6000600401819055506000600401546009600101819055508260096002018190555060004790506001841015610668576040517f08c379a000000000000000000000000000000000000000000000000000000000815260040161065f90610d51565b60405180910390fd5b60008311801561067757508083105b6106b6576040517f08c379a00000000000000000000000000000000000000000000000000000000081526004016106ad90610cf1565b60405180910390fd5b8473ffffffffffffffffffffffffffffffffffffffff166108fc849081150290604051600060405180830381858888f193505050501580156106fc573d6000803e3d6000fd5b5082816107099190610ed5565b90506000600301546000600101546107219190610df4565b6000600101819055505050505050565b8073ffffffffffffffffffffffffffffffffffffffff163373ffffffffffffffffffffffffffffffffffffffff1614156107a0576040517f08c379a000000000000000000000000000000000000000000000000000000000815260040161079790610d71565b60405180910390fd5b601260009054906101000a900473ffffffffffffffffffffffffffffffffffffffff1673ffffffffffffffffffffffffffffffffffffffff163373ffffffffffffffffffffffffffffffffffffffff1614156107fb57600080fd5b6000341161083e576040517f08c379a000000000000000000000000000000000000000000000000000000000815260040161083590610d11565b60405180910390fd5b8073ffffffffffffffffffffffffffffffffffffffff166108fc349081150290604051600060405180830381858888f19350505050158015610884573d6000803e3d6000fd5b508073ffffffffffffffffffffffffffffffffffffffff163160006001018190555050565b826000800160006101000a81548173ffffffffffffffffffffffffffffffffffffffff021916908373ffffffffffffffffffffffffffffffffffffffff160217905550600060646009836108fd9190610e7b565b6109079190610e4a565b905080826109159190610df4565b6000600501546109259190610df4565b600060050181905550600060050154600f600001819055508260006005015461094e9190610e4a565b60006006015461095e9190610df4565b600060060181905550600060060154600f6001018190555082600f60020181905550600047905060018410156109c9576040517f08c379a00000000000000000000000000000000000000000000000000000000081526004016109c090610d51565b60405180910390fd5b6000831180156109d857508083105b610a17576040517f08c379a0000000000000000000000000000000000000000000000000000000008152600401610a0e90610cf1565b60405180910390fd5b8473ffffffffffffffffffffffffffffffffffffffff166108fc849081150290604051600060405180830381858888f19350505050158015610a5d573d6000803e3d6000fd5b508281610a6a9190610ed5565b9050600060050154600060010154610a829190610df4565b6000600101819055505050505050565b600f8060000154908060010154908060020154905083565b600081359050610ab981611148565b92915050565b600081359050610ace8161115f565b92915050565b600060208284031215610aea57610ae9610fb5565b5b6000610af884828501610aaa565b91505092915050565b600080600060608486031215610b1a57610b19610fb5565b5b6000610b2886828701610aaa565b9350506020610b3986828701610abf565b9250506040610b4a86828701610abf565b9150509250925092565b610b5d81610f09565b82525050565b6000610b70602883610de3565b9150610b7b82610fba565b604082019050919050565b6000610b93603683610de3565b9150610b9e82611009565b604082019050919050565b6000610bb6602683610de3565b9150610bc182611058565b604082019050919050565b6000610bd9602183610de3565b9150610be4826110a7565b604082019050919050565b6000610bfc602283610de3565b9150610c07826110f6565b604082019050919050565b6000610c1f600083610de3565b9150610c2a82611145565b600082019050919050565b610c3e81610f4d565b82525050565b600061012082019050610c5a600083018c610b54565b610c67602083018b610c35565b610c74604083018a610c35565b610c816060830189610c35565b610c8e6080830188610c35565b610c9b60a0830187610c35565b610ca860c0830186610c35565b610cb560e0830185610c35565b610cc3610100830184610c35565b9a9950505050505050505050565b60006020820190508181036000830152610cea81610b63565b9050919050565b60006020820190508181036000830152610d0a81610b86565b9050919050565b60006020820190508181036000830152610d2a81610ba9565b9050919050565b60006020820190508181036000830152610d4a81610bcc565b9050919050565b60006020820190508181036000830152610d6a81610bef565b9050919050565b60006020820190508181036000830152610d8a81610c12565b9050919050565b6000602082019050610da66000830184610c35565b92915050565b6000606082019050610dc16000830186610c35565b610dce6020830185610c35565b610ddb6040830184610c35565b949350505050565b600082825260208201905092915050565b6000610dff82610f4d565b9150610e0a83610f4d565b9250827fffffffffffffffffffffffffffffffffffffffffffffffffffffffffffffffff03821115610e3f57610e3e610f57565b5b828201905092915050565b6000610e5582610f4d565b9150610e6083610f4d565b925082610e7057610e6f610f86565b5b828204905092915050565b6000610e8682610f4d565b9150610e9183610f4d565b9250817fffffffffffffffffffffffffffffffffffffffffffffffffffffffffffffffff0483118215151615610eca57610ec9610f57565b5b828202905092915050565b6000610ee082610f4d565b9150610eeb83610f4d565b925082821015610efe57610efd610f57565b5b828203905092915050565b6000610f1482610f2d565b9050919050565b6000610f2682610f2d565b9050919050565b600073ffffffffffffffffffffffffffffffffffffffff82169050919050565b6000819050919050565b7f4e487b7100000000000000000000000000000000000000000000000000000000600052601160045260246000fd5b7f4e487b7100000000000000000000000000000000000000000000000000000000600052601260045260246000fd5b600080fd5b7f4f6e6c79204f776e65722063616e204465706f7369742046756e647320496e2060008201527f436f6e7472616374000000000000000000000000000000000000000000000000602082015250565b7f416d6f756e74205368756c64206e6f74206265205a65726f20416e64204c657360008201527f73207468616e20436f6e747261637442616c616e636500000000000000000000602082015250565b7f4465706f7369742046756e64206d75737420626520677265617465722074686160008201527f6e205a65726f0000000000000000000000000000000000000000000000000000602082015250565b7f56616c75652053686f756c642062652047726561746572207468616e205a657260008201527f6f00000000000000000000000000000000000000000000000000000000000000602082015250565b7f4475726174696f6e2073686f756c642062652031204d6f6e7468206f72206d6f60008201527f7265000000000000000000000000000000000000000000000000000000000000602082015250565b50565b61115181610f1b565b811461115c57600080fd5b50565b61116881610f4d565b811461117357600080fd5b5056fea26469706673582212206e3bb0c9d04e4712120888a8e0da286b7c1ea9d75269a0f34331c010be88527b64736f6c63430008060033",
			"opcodes": "PUSH1 0x80 PUSH1 0x40 MSTORE CALLVALUE DUP1 ISZERO PUSH2 0x10 JUMPI PUSH1 0x0 DUP1 REVERT JUMPDEST POP CALLER PUSH1 0x12 PUSH1 0x0 PUSH2 0x100 EXP DUP2 SLOAD DUP2 PUSH20 0xFFFFFFFFFFFFFFFFFFFFFFFFFFFFFFFFFFFFFFFF MUL NOT AND SWAP1 DUP4 PUSH20 0xFFFFFFFFFFFFFFFFFFFFFFFFFFFFFFFFFFFFFFFF AND MUL OR SWAP1 SSTORE POP PUSH2 0x11AC DUP1 PUSH2 0x61 PUSH1 0x0 CODECOPY PUSH1 0x0 RETURN INVALID PUSH1 0x80 PUSH1 0x40 MSTORE PUSH1 0x4 CALLDATASIZE LT PUSH2 0x91 JUMPI PUSH1 0x0 CALLDATALOAD PUSH1 0xE0 SHR DUP1 PUSH4 0xAE176C86 GT PUSH2 0x59 JUMPI DUP1 PUSH4 0xAE176C86 EQ PUSH2 0x149 JUMPI DUP1 PUSH4 0xBC1211D1 EQ PUSH2 0x174 JUMPI DUP1 PUSH4 0xCA3FBF26 EQ PUSH2 0x190 JUMPI DUP1 PUSH4 0xDC126B66 EQ PUSH2 0x1AC JUMPI DUP1 PUSH4 0xE4511ADF EQ PUSH2 0x1C8 JUMPI PUSH2 0x91 JUMP JUMPDEST DUP1 PUSH4 0x4278A77 EQ PUSH2 0x96 JUMPI DUP1 PUSH4 0x1BF481BD EQ PUSH2 0xC3 JUMPI DUP1 PUSH4 0x87D91FA9 EQ PUSH2 0xDF JUMPI DUP1 PUSH4 0x911D3D12 EQ PUSH2 0x112 JUMPI DUP1 PUSH4 0xA1A5BA78 EQ PUSH2 0x13F JUMPI JUMPDEST PUSH1 0x0 DUP1 REVERT JUMPDEST CALLVALUE DUP1 ISZERO PUSH2 0xA2 JUMPI PUSH1 0x0 DUP1 REVERT JUMPDEST POP PUSH2 0xAB PUSH2 0x1F5 JUMP JUMPDEST PUSH1 0x40 MLOAD PUSH2 0xBA SWAP4 SWAP3 SWAP2 SWAP1 PUSH2 0xDAC JUMP JUMPDEST PUSH1 0x40 MLOAD DUP1 SWAP2 SUB SWAP1 RETURN JUMPDEST PUSH2 0xDD PUSH1 0x4 DUP1 CALLDATASIZE SUB DUP2 ADD SWAP1 PUSH2 0xD8 SWAP2 SWAP1 PUSH2 0xB01 JUMP JUMPDEST PUSH2 0x20D JUMP JUMPDEST STOP JUMPDEST CALLVALUE DUP1 ISZERO PUSH2 0xEB JUMPI PUSH1 0x0 DUP1 REVERT JUMPDEST POP PUSH2 0xF4 PUSH2 0x3F6 JUMP JUMPDEST PUSH1 0x40 MLOAD PUSH2 0x109 SWAP10 SWAP9 SWAP8 SWAP7 SWAP6 SWAP5 SWAP4 SWAP3 SWAP2 SWAP1 PUSH2 0xC44 JUMP JUMPDEST PUSH1 0x40 MLOAD DUP1 SWAP2 SUB SWAP1 RETURN JUMPDEST CALLVALUE DUP1 ISZERO PUSH2 0x11E JUMPI PUSH1 0x0 DUP1 REVERT JUMPDEST POP PUSH2 0x127 PUSH2 0x452 JUMP JUMPDEST PUSH1 0x40 MLOAD PUSH2 0x136 SWAP4 SWAP3 SWAP2 SWAP1 PUSH2 0xDAC JUMP JUMPDEST PUSH1 0x40 MLOAD DUP1 SWAP2 SUB SWAP1 RETURN JUMPDEST PUSH2 0x147 PUSH2 0x46A JUMP JUMPDEST STOP JUMPDEST CALLVALUE DUP1 ISZERO PUSH2 0x155 JUMPI PUSH1 0x0 DUP1 REVERT JUMPDEST POP PUSH2 0x15E PUSH2 0x540 JUMP JUMPDEST PUSH1 0x40 MLOAD PUSH2 0x16B SWAP2 SWAP1 PUSH2 0xD91 JUMP JUMPDEST PUSH1 0x40 MLOAD DUP1 SWAP2 SUB SWAP1 RETURN JUMPDEST PUSH2 0x18E PUSH1 0x4 DUP1 CALLDATASIZE SUB DUP2 ADD SWAP1 PUSH2 0x189 SWAP2 SWAP1 PUSH2 0xB01 JUMP JUMPDEST PUSH2 0x548 JUMP JUMPDEST STOP JUMPDEST PUSH2 0x1AA PUSH1 0x4 DUP1 CALLDATASIZE SUB DUP2 ADD SWAP1 PUSH2 0x1A5 SWAP2 SWAP1 PUSH2 0xAD4 JUMP JUMPDEST PUSH2 0x731 JUMP JUMPDEST STOP JUMPDEST PUSH2 0x1C6 PUSH1 0x4 DUP1 CALLDATASIZE SUB DUP2 ADD SWAP1 PUSH2 0x1C1 SWAP2 SWAP1 PUSH2 0xB01 JUMP JUMPDEST PUSH2 0x8A9 JUMP JUMPDEST STOP JUMPDEST CALLVALUE DUP1 ISZERO PUSH2 0x1D4 JUMPI PUSH1 0x0 DUP1 REVERT JUMPDEST POP PUSH2 0x1DD PUSH2 0xA92 JUMP JUMPDEST PUSH1 0x40 MLOAD PUSH2 0x1EC SWAP4 SWAP3 SWAP2 SWAP1 PUSH2 0xDAC JUMP JUMPDEST PUSH1 0x40 MLOAD DUP1 SWAP2 SUB SWAP1 RETURN JUMPDEST PUSH1 0xC DUP1 PUSH1 0x0 ADD SLOAD SWAP1 DUP1 PUSH1 0x1 ADD SLOAD SWAP1 DUP1 PUSH1 0x2 ADD SLOAD SWAP1 POP DUP4 JUMP JUMPDEST DUP3 PUSH1 0x0 DUP1 ADD PUSH1 0x0 PUSH2 0x100 EXP DUP2 SLOAD DUP2 PUSH20 0xFFFFFFFFFFFFFFFFFFFFFFFFFFFFFFFFFFFFFFFF MUL NOT AND SWAP1 DUP4 PUSH20 0xFFFFFFFFFFFFFFFFFFFFFFFFFFFFFFFFFFFFFFFF AND MUL OR SWAP1 SSTORE POP PUSH1 0x0 PUSH1 0x64 PUSH1 0x7 DUP4 PUSH2 0x261 SWAP2 SWAP1 PUSH2 0xE7B JUMP JUMPDEST PUSH2 0x26B SWAP2 SWAP1 PUSH2 0xE4A JUMP JUMPDEST SWAP1 POP DUP1 DUP3 PUSH2 0x279 SWAP2 SWAP1 PUSH2 0xDF4 JUMP JUMPDEST PUSH1 0x0 PUSH1 0x7 ADD SLOAD PUSH2 0x289 SWAP2 SWAP1 PUSH2 0xDF4 JUMP JUMPDEST PUSH1 0x0 PUSH1 0x7 ADD DUP2 SWAP1 SSTORE POP PUSH1 0x0 PUSH1 0x7 ADD SLOAD PUSH1 0xC PUSH1 0x0 ADD DUP2 SWAP1 SSTORE POP DUP3 PUSH1 0x0 PUSH1 0x7 ADD SLOAD PUSH2 0x2B2 SWAP2 SWAP1 PUSH2 0xE4A JUMP JUMPDEST PUSH1 0x0 PUSH1 0x8 ADD SLOAD PUSH2 0x2C2 SWAP2 SWAP1 PUSH2 0xDF4 JUMP JUMPDEST PUSH1 0x0 PUSH1 0x8 ADD DUP2 SWAP1 SSTORE POP PUSH1 0x0 PUSH1 0x8 ADD SLOAD PUSH1 0xC PUSH1 0x1 ADD DUP2 SWAP1 SSTORE POP DUP3 PUSH1 0xC PUSH1 0x2 ADD DUP2 SWAP1 SSTORE POP PUSH1 0x0 SELFBALANCE SWAP1 POP PUSH1 0x1 DUP5 LT ISZERO PUSH2 0x32D JUMPI PUSH1 0x40 MLOAD PUSH32 0x8C379A000000000000000000000000000000000000000000000000000000000 DUP2 MSTORE PUSH1 0x4 ADD PUSH2 0x324 SWAP1 PUSH2 0xD51 JUMP JUMPDEST PUSH1 0x40 MLOAD DUP1 SWAP2 SUB SWAP1 REVERT JUMPDEST PUSH1 0x0 DUP4 GT DUP1 ISZERO PUSH2 0x33C JUMPI POP DUP1 DUP4 LT JUMPDEST PUSH2 0x37B JUMPI PUSH1 0x40 MLOAD PUSH32 0x8C379A000000000000000000000000000000000000000000000000000000000 DUP2 MSTORE PUSH1 0x4 ADD PUSH2 0x372 SWAP1 PUSH2 0xCF1 JUMP JUMPDEST PUSH1 0x40 MLOAD DUP1 SWAP2 SUB SWAP1 REVERT JUMPDEST DUP5 PUSH20 0xFFFFFFFFFFFFFFFFFFFFFFFFFFFFFFFFFFFFFFFF AND PUSH2 0x8FC DUP5 SWAP1 DUP2 ISZERO MUL SWAP1 PUSH1 0x40 MLOAD PUSH1 0x0 PUSH1 0x40 MLOAD DUP1 DUP4 SUB DUP2 DUP6 DUP9 DUP9 CALL SWAP4 POP POP POP POP ISZERO DUP1 ISZERO PUSH2 0x3C1 JUMPI RETURNDATASIZE PUSH1 0x0 DUP1 RETURNDATACOPY RETURNDATASIZE PUSH1 0x0 REVERT JUMPDEST POP DUP3 DUP2 PUSH2 0x3CE SWAP2 SWAP1 PUSH2 0xED5 JUMP JUMPDEST SWAP1 POP PUSH1 0x0 PUSH1 0x7 ADD SLOAD PUSH1 0x0 PUSH1 0x1 ADD SLOAD PUSH2 0x3E6 SWAP2 SWAP1 PUSH2 0xDF4 JUMP JUMPDEST PUSH1 0x0 PUSH1 0x1 ADD DUP2 SWAP1 SSTORE POP POP POP POP POP POP JUMP JUMPDEST PUSH1 0x0 DUP1 PUSH1 0x0 ADD PUSH1 0x0 SWAP1 SLOAD SWAP1 PUSH2 0x100 EXP SWAP1 DIV PUSH20 0xFFFFFFFFFFFFFFFFFFFFFFFFFFFFFFFFFFFFFFFF AND SWAP1 DUP1 PUSH1 0x1 ADD SLOAD SWAP1 DUP1 PUSH1 0x2 ADD SLOAD SWAP1 DUP1 PUSH1 0x3 ADD SLOAD SWAP1 DUP1 PUSH1 0x4 ADD SLOAD SWAP1 DUP1 PUSH1 0x5 ADD SLOAD SWAP1 DUP1 PUSH1 0x6 ADD SLOAD SWAP1 DUP1 PUSH1 0x7 ADD SLOAD SWAP1 DUP1 PUSH1 0x8 ADD SLOAD SWAP1 POP DUP10 JUMP JUMPDEST PUSH1 0x9 DUP1 PUSH1 0x0 ADD SLOAD SWAP1 DUP1 PUSH1 0x1 ADD SLOAD SWAP1 DUP1 PUSH1 0x2 ADD SLOAD SWAP1 POP DUP4 JUMP JUMPDEST PUSH1 0x0 CALLVALUE EQ ISZERO PUSH2 0x4AE JUMPI PUSH1 0x40 MLOAD PUSH32 0x8C379A000000000000000000000000000000000000000000000000000000000 DUP2 MSTORE PUSH1 0x4 ADD PUSH2 0x4A5 SWAP1 PUSH2 0xD31 JUMP JUMPDEST PUSH1 0x40 MLOAD DUP1 SWAP2 SUB SWAP1 REVERT JUMPDEST PUSH1 0x12 PUSH1 0x0 SWAP1 SLOAD SWAP1 PUSH2 0x100 EXP SWAP1 DIV PUSH20 0xFFFFFFFFFFFFFFFFFFFFFFFFFFFFFFFFFFFFFFFF AND PUSH20 0xFFFFFFFFFFFFFFFFFFFFFFFFFFFFFFFFFFFFFFFF AND CALLER PUSH20 0xFFFFFFFFFFFFFFFFFFFFFFFFFFFFFFFFFFFFFFFF AND EQ PUSH2 0x53E JUMPI PUSH1 0x40 MLOAD PUSH32 0x8C379A000000000000000000000000000000000000000000000000000000000 DUP2 MSTORE PUSH1 0x4 ADD PUSH2 0x535 SWAP1 PUSH2 0xCD1 JUMP JUMPDEST PUSH1 0x40 MLOAD DUP1 SWAP2 SUB SWAP1 REVERT JUMPDEST JUMP JUMPDEST PUSH1 0x0 SELFBALANCE SWAP1 POP SWAP1 JUMP JUMPDEST DUP3 PUSH1 0x0 DUP1 ADD PUSH1 0x0 PUSH2 0x100 EXP DUP2 SLOAD DUP2 PUSH20 0xFFFFFFFFFFFFFFFFFFFFFFFFFFFFFFFFFFFFFFFF MUL NOT AND SWAP1 DUP4 PUSH20 0xFFFFFFFFFFFFFFFFFFFFFFFFFFFFFFFFFFFFFFFF AND MUL OR SWAP1 SSTORE POP PUSH1 0x0 PUSH1 0x64 PUSH1 0xE DUP4 PUSH2 0x59C SWAP2 SWAP1 PUSH2 0xE7B JUMP JUMPDEST PUSH2 0x5A6 SWAP2 SWAP1 PUSH2 0xE4A JUMP JUMPDEST SWAP1 POP DUP1 DUP3 PUSH2 0x5B4 SWAP2 SWAP1 PUSH2 0xDF4 JUMP JUMPDEST PUSH1 0x0 PUSH1 0x3 ADD SLOAD PUSH2 0x5C4 SWAP2 SWAP1 PUSH2 0xDF4 JUMP JUMPDEST PUSH1 0x0 PUSH1 0x3 ADD DUP2 SWAP1 SSTORE POP PUSH1 0x0 PUSH1 0x3 ADD SLOAD PUSH1 0x9 PUSH1 0x0 ADD DUP2 SWAP1 SSTORE POP DUP3 PUSH1 0x0 PUSH1 0x3 ADD SLOAD PUSH2 0x5ED SWAP2 SWAP1 PUSH2 0xE4A JUMP JUMPDEST PUSH1 0x0 PUSH1 0x4 ADD SLOAD PUSH2 0x5FD SWAP2 SWAP1 PUSH2 0xDF4 JUMP JUMPDEST PUSH1 0x0 PUSH1 0x4 ADD DUP2 SWAP1 SSTORE POP PUSH1 0x0 PUSH1 0x4 ADD SLOAD PUSH1 0x9 PUSH1 0x1 ADD DUP2 SWAP1 SSTORE POP DUP3 PUSH1 0x9 PUSH1 0x2 ADD DUP2 SWAP1 SSTORE POP PUSH1 0x0 SELFBALANCE SWAP1 POP PUSH1 0x1 DUP5 LT ISZERO PUSH2 0x668 JUMPI PUSH1 0x40 MLOAD PUSH32 0x8C379A000000000000000000000000000000000000000000000000000000000 DUP2 MSTORE PUSH1 0x4 ADD PUSH2 0x65F SWAP1 PUSH2 0xD51 JUMP JUMPDEST PUSH1 0x40 MLOAD DUP1 SWAP2 SUB SWAP1 REVERT JUMPDEST PUSH1 0x0 DUP4 GT DUP1 ISZERO PUSH2 0x677 JUMPI POP DUP1 DUP4 LT JUMPDEST PUSH2 0x6B6 JUMPI PUSH1 0x40 MLOAD PUSH32 0x8C379A000000000000000000000000000000000000000000000000000000000 DUP2 MSTORE PUSH1 0x4 ADD PUSH2 0x6AD SWAP1 PUSH2 0xCF1 JUMP JUMPDEST PUSH1 0x40 MLOAD DUP1 SWAP2 SUB SWAP1 REVERT JUMPDEST DUP5 PUSH20 0xFFFFFFFFFFFFFFFFFFFFFFFFFFFFFFFFFFFFFFFF AND PUSH2 0x8FC DUP5 SWAP1 DUP2 ISZERO MUL SWAP1 PUSH1 0x40 MLOAD PUSH1 0x0 PUSH1 0x40 MLOAD DUP1 DUP4 SUB DUP2 DUP6 DUP9 DUP9 CALL SWAP4 POP POP POP POP ISZERO DUP1 ISZERO PUSH2 0x6FC JUMPI RETURNDATASIZE PUSH1 0x0 DUP1 RETURNDATACOPY RETURNDATASIZE PUSH1 0x0 REVERT JUMPDEST POP DUP3 DUP2 PUSH2 0x709 SWAP2 SWAP1 PUSH2 0xED5 JUMP JUMPDEST SWAP1 POP PUSH1 0x0 PUSH1 0x3 ADD SLOAD PUSH1 0x0 PUSH1 0x1 ADD SLOAD PUSH2 0x721 SWAP2 SWAP1 PUSH2 0xDF4 JUMP JUMPDEST PUSH1 0x0 PUSH1 0x1 ADD DUP2 SWAP1 SSTORE POP POP POP POP POP POP JUMP JUMPDEST DUP1 PUSH20 0xFFFFFFFFFFFFFFFFFFFFFFFFFFFFFFFFFFFFFFFF AND CALLER PUSH20 0xFFFFFFFFFFFFFFFFFFFFFFFFFFFFFFFFFFFFFFFF AND EQ ISZERO PUSH2 0x7A0 JUMPI PUSH1 0x40 MLOAD PUSH32 0x8C379A000000000000000000000000000000000000000000000000000000000 DUP2 MSTORE PUSH1 0x4 ADD PUSH2 0x797 SWAP1 PUSH2 0xD71 JUMP JUMPDEST PUSH1 0x40 MLOAD DUP1 SWAP2 SUB SWAP1 REVERT JUMPDEST PUSH1 0x12 PUSH1 0x0 SWAP1 SLOAD SWAP1 PUSH2 0x100 EXP SWAP1 DIV PUSH20 0xFFFFFFFFFFFFFFFFFFFFFFFFFFFFFFFFFFFFFFFF AND PUSH20 0xFFFFFFFFFFFFFFFFFFFFFFFFFFFFFFFFFFFFFFFF AND CALLER PUSH20 0xFFFFFFFFFFFFFFFFFFFFFFFFFFFFFFFFFFFFFFFF AND EQ ISZERO PUSH2 0x7FB JUMPI PUSH1 0x0 DUP1 REVERT JUMPDEST PUSH1 0x0 CALLVALUE GT PUSH2 0x83E JUMPI PUSH1 0x40 MLOAD PUSH32 0x8C379A000000000000000000000000000000000000000000000000000000000 DUP2 MSTORE PUSH1 0x4 ADD PUSH2 0x835 SWAP1 PUSH2 0xD11 JUMP JUMPDEST PUSH1 0x40 MLOAD DUP1 SWAP2 SUB SWAP1 REVERT JUMPDEST DUP1 PUSH20 0xFFFFFFFFFFFFFFFFFFFFFFFFFFFFFFFFFFFFFFFF AND PUSH2 0x8FC CALLVALUE SWAP1 DUP2 ISZERO MUL SWAP1 PUSH1 0x40 MLOAD PUSH1 0x0 PUSH1 0x40 MLOAD DUP1 DUP4 SUB DUP2 DUP6 DUP9 DUP9 CALL SWAP4 POP POP POP POP ISZERO DUP1 ISZERO PUSH2 0x884 JUMPI RETURNDATASIZE PUSH1 0x0 DUP1 RETURNDATACOPY RETURNDATASIZE PUSH1 0x0 REVERT JUMPDEST POP DUP1 PUSH20 0xFFFFFFFFFFFFFFFFFFFFFFFFFFFFFFFFFFFFFFFF AND BALANCE PUSH1 0x0 PUSH1 0x1 ADD DUP2 SWAP1 SSTORE POP POP JUMP JUMPDEST DUP3 PUSH1 0x0 DUP1 ADD PUSH1 0x0 PUSH2 0x100 EXP DUP2 SLOAD DUP2 PUSH20 0xFFFFFFFFFFFFFFFFFFFFFFFFFFFFFFFFFFFFFFFF MUL NOT AND SWAP1 DUP4 PUSH20 0xFFFFFFFFFFFFFFFFFFFFFFFFFFFFFFFFFFFFFFFF AND MUL OR SWAP1 SSTORE POP PUSH1 0x0 PUSH1 0x64 PUSH1 0x9 DUP4 PUSH2 0x8FD SWAP2 SWAP1 PUSH2 0xE7B JUMP JUMPDEST PUSH2 0x907 SWAP2 SWAP1 PUSH2 0xE4A JUMP JUMPDEST SWAP1 POP DUP1 DUP3 PUSH2 0x915 SWAP2 SWAP1 PUSH2 0xDF4 JUMP JUMPDEST PUSH1 0x0 PUSH1 0x5 ADD SLOAD PUSH2 0x925 SWAP2 SWAP1 PUSH2 0xDF4 JUMP JUMPDEST PUSH1 0x0 PUSH1 0x5 ADD DUP2 SWAP1 SSTORE POP PUSH1 0x0 PUSH1 0x5 ADD SLOAD PUSH1 0xF PUSH1 0x0 ADD DUP2 SWAP1 SSTORE POP DUP3 PUSH1 0x0 PUSH1 0x5 ADD SLOAD PUSH2 0x94E SWAP2 SWAP1 PUSH2 0xE4A JUMP JUMPDEST PUSH1 0x0 PUSH1 0x6 ADD SLOAD PUSH2 0x95E SWAP2 SWAP1 PUSH2 0xDF4 JUMP JUMPDEST PUSH1 0x0 PUSH1 0x6 ADD DUP2 SWAP1 SSTORE POP PUSH1 0x0 PUSH1 0x6 ADD SLOAD PUSH1 0xF PUSH1 0x1 ADD DUP2 SWAP1 SSTORE POP DUP3 PUSH1 0xF PUSH1 0x2 ADD DUP2 SWAP1 SSTORE POP PUSH1 0x0 SELFBALANCE SWAP1 POP PUSH1 0x1 DUP5 LT ISZERO PUSH2 0x9C9 JUMPI PUSH1 0x40 MLOAD PUSH32 0x8C379A000000000000000000000000000000000000000000000000000000000 DUP2 MSTORE PUSH1 0x4 ADD PUSH2 0x9C0 SWAP1 PUSH2 0xD51 JUMP JUMPDEST PUSH1 0x40 MLOAD DUP1 SWAP2 SUB SWAP1 REVERT JUMPDEST PUSH1 0x0 DUP4 GT DUP1 ISZERO PUSH2 0x9D8 JUMPI POP DUP1 DUP4 LT JUMPDEST PUSH2 0xA17 JUMPI PUSH1 0x40 MLOAD PUSH32 0x8C379A000000000000000000000000000000000000000000000000000000000 DUP2 MSTORE PUSH1 0x4 ADD PUSH2 0xA0E SWAP1 PUSH2 0xCF1 JUMP JUMPDEST PUSH1 0x40 MLOAD DUP1 SWAP2 SUB SWAP1 REVERT JUMPDEST DUP5 PUSH20 0xFFFFFFFFFFFFFFFFFFFFFFFFFFFFFFFFFFFFFFFF AND PUSH2 0x8FC DUP5 SWAP1 DUP2 ISZERO MUL SWAP1 PUSH1 0x40 MLOAD PUSH1 0x0 PUSH1 0x40 MLOAD DUP1 DUP4 SUB DUP2 DUP6 DUP9 DUP9 CALL SWAP4 POP POP POP POP ISZERO DUP1 ISZERO PUSH2 0xA5D JUMPI RETURNDATASIZE PUSH1 0x0 DUP1 RETURNDATACOPY RETURNDATASIZE PUSH1 0x0 REVERT JUMPDEST POP DUP3 DUP2 PUSH2 0xA6A SWAP2 SWAP1 PUSH2 0xED5 JUMP JUMPDEST SWAP1 POP PUSH1 0x0 PUSH1 0x5 ADD SLOAD PUSH1 0x0 PUSH1 0x1 ADD SLOAD PUSH2 0xA82 SWAP2 SWAP1 PUSH2 0xDF4 JUMP JUMPDEST PUSH1 0x0 PUSH1 0x1 ADD DUP2 SWAP1 SSTORE POP POP POP POP POP POP JUMP JUMPDEST PUSH1 0xF DUP1 PUSH1 0x0 ADD SLOAD SWAP1 DUP1 PUSH1 0x1 ADD SLOAD SWAP1 DUP1 PUSH1 0x2 ADD SLOAD SWAP1 POP DUP4 JUMP JUMPDEST PUSH1 0x0 DUP2 CALLDATALOAD SWAP1 POP PUSH2 0xAB9 DUP2 PUSH2 0x1148 JUMP JUMPDEST SWAP3 SWAP2 POP POP JUMP JUMPDEST PUSH1 0x0 DUP2 CALLDATALOAD SWAP1 POP PUSH2 0xACE DUP2 PUSH2 0x115F JUMP JUMPDEST SWAP3 SWAP2 POP POP JUMP JUMPDEST PUSH1 0x0 PUSH1 0x20 DUP3 DUP5 SUB SLT ISZERO PUSH2 0xAEA JUMPI PUSH2 0xAE9 PUSH2 0xFB5 JUMP JUMPDEST JUMPDEST PUSH1 0x0 PUSH2 0xAF8 DUP5 DUP3 DUP6 ADD PUSH2 0xAAA JUMP JUMPDEST SWAP2 POP POP SWAP3 SWAP2 POP POP JUMP JUMPDEST PUSH1 0x0 DUP1 PUSH1 0x0 PUSH1 0x60 DUP5 DUP7 SUB SLT ISZERO PUSH2 0xB1A JUMPI PUSH2 0xB19 PUSH2 0xFB5 JUMP JUMPDEST JUMPDEST PUSH1 0x0 PUSH2 0xB28 DUP7 DUP3 DUP8 ADD PUSH2 0xAAA JUMP JUMPDEST SWAP4 POP POP PUSH1 0x20 PUSH2 0xB39 DUP7 DUP3 DUP8 ADD PUSH2 0xABF JUMP JUMPDEST SWAP3 POP POP PUSH1 0x40 PUSH2 0xB4A DUP7 DUP3 DUP8 ADD PUSH2 0xABF JUMP JUMPDEST SWAP2 POP POP SWAP3 POP SWAP3 POP SWAP3 JUMP JUMPDEST PUSH2 0xB5D DUP2 PUSH2 0xF09 JUMP JUMPDEST DUP3 MSTORE POP POP JUMP JUMPDEST PUSH1 0x0 PUSH2 0xB70 PUSH1 0x28 DUP4 PUSH2 0xDE3 JUMP JUMPDEST SWAP2 POP PUSH2 0xB7B DUP3 PUSH2 0xFBA JUMP JUMPDEST PUSH1 0x40 DUP3 ADD SWAP1 POP SWAP2 SWAP1 POP JUMP JUMPDEST PUSH1 0x0 PUSH2 0xB93 PUSH1 0x36 DUP4 PUSH2 0xDE3 JUMP JUMPDEST SWAP2 POP PUSH2 0xB9E DUP3 PUSH2 0x1009 JUMP JUMPDEST PUSH1 0x40 DUP3 ADD SWAP1 POP SWAP2 SWAP1 POP JUMP JUMPDEST PUSH1 0x0 PUSH2 0xBB6 PUSH1 0x26 DUP4 PUSH2 0xDE3 JUMP JUMPDEST SWAP2 POP PUSH2 0xBC1 DUP3 PUSH2 0x1058 JUMP JUMPDEST PUSH1 0x40 DUP3 ADD SWAP1 POP SWAP2 SWAP1 POP JUMP JUMPDEST PUSH1 0x0 PUSH2 0xBD9 PUSH1 0x21 DUP4 PUSH2 0xDE3 JUMP JUMPDEST SWAP2 POP PUSH2 0xBE4 DUP3 PUSH2 0x10A7 JUMP JUMPDEST PUSH1 0x40 DUP3 ADD SWAP1 POP SWAP2 SWAP1 POP JUMP JUMPDEST PUSH1 0x0 PUSH2 0xBFC PUSH1 0x22 DUP4 PUSH2 0xDE3 JUMP JUMPDEST SWAP2 POP PUSH2 0xC07 DUP3 PUSH2 0x10F6 JUMP JUMPDEST PUSH1 0x40 DUP3 ADD SWAP1 POP SWAP2 SWAP1 POP JUMP JUMPDEST PUSH1 0x0 PUSH2 0xC1F PUSH1 0x0 DUP4 PUSH2 0xDE3 JUMP JUMPDEST SWAP2 POP PUSH2 0xC2A DUP3 PUSH2 0x1145 JUMP JUMPDEST PUSH1 0x0 DUP3 ADD SWAP1 POP SWAP2 SWAP1 POP JUMP JUMPDEST PUSH2 0xC3E DUP2 PUSH2 0xF4D JUMP JUMPDEST DUP3 MSTORE POP POP JUMP JUMPDEST PUSH1 0x0 PUSH2 0x120 DUP3 ADD SWAP1 POP PUSH2 0xC5A PUSH1 0x0 DUP4 ADD DUP13 PUSH2 0xB54 JUMP JUMPDEST PUSH2 0xC67 PUSH1 0x20 DUP4 ADD DUP12 PUSH2 0xC35 JUMP JUMPDEST PUSH2 0xC74 PUSH1 0x40 DUP4 ADD DUP11 PUSH2 0xC35 JUMP JUMPDEST PUSH2 0xC81 PUSH1 0x60 DUP4 ADD DUP10 PUSH2 0xC35 JUMP JUMPDEST PUSH2 0xC8E PUSH1 0x80 DUP4 ADD DUP9 PUSH2 0xC35 JUMP JUMPDEST PUSH2 0xC9B PUSH1 0xA0 DUP4 ADD DUP8 PUSH2 0xC35 JUMP JUMPDEST PUSH2 0xCA8 PUSH1 0xC0 DUP4 ADD DUP7 PUSH2 0xC35 JUMP JUMPDEST PUSH2 0xCB5 PUSH1 0xE0 DUP4 ADD DUP6 PUSH2 0xC35 JUMP JUMPDEST PUSH2 0xCC3 PUSH2 0x100 DUP4 ADD DUP5 PUSH2 0xC35 JUMP JUMPDEST SWAP11 SWAP10 POP POP POP POP POP POP POP POP POP POP JUMP JUMPDEST PUSH1 0x0 PUSH1 0x20 DUP3 ADD SWAP1 POP DUP2 DUP2 SUB PUSH1 0x0 DUP4 ADD MSTORE PUSH2 0xCEA DUP2 PUSH2 0xB63 JUMP JUMPDEST SWAP1 POP SWAP2 SWAP1 POP JUMP JUMPDEST PUSH1 0x0 PUSH1 0x20 DUP3 ADD SWAP1 POP DUP2 DUP2 SUB PUSH1 0x0 DUP4 ADD MSTORE PUSH2 0xD0A DUP2 PUSH2 0xB86 JUMP JUMPDEST SWAP1 POP SWAP2 SWAP1 POP JUMP JUMPDEST PUSH1 0x0 PUSH1 0x20 DUP3 ADD SWAP1 POP DUP2 DUP2 SUB PUSH1 0x0 DUP4 ADD MSTORE PUSH2 0xD2A DUP2 PUSH2 0xBA9 JUMP JUMPDEST SWAP1 POP SWAP2 SWAP1 POP JUMP JUMPDEST PUSH1 0x0 PUSH1 0x20 DUP3 ADD SWAP1 POP DUP2 DUP2 SUB PUSH1 0x0 DUP4 ADD MSTORE PUSH2 0xD4A DUP2 PUSH2 0xBCC JUMP JUMPDEST SWAP1 POP SWAP2 SWAP1 POP JUMP JUMPDEST PUSH1 0x0 PUSH1 0x20 DUP3 ADD SWAP1 POP DUP2 DUP2 SUB PUSH1 0x0 DUP4 ADD MSTORE PUSH2 0xD6A DUP2 PUSH2 0xBEF JUMP JUMPDEST SWAP1 POP SWAP2 SWAP1 POP JUMP JUMPDEST PUSH1 0x0 PUSH1 0x20 DUP3 ADD SWAP1 POP DUP2 DUP2 SUB PUSH1 0x0 DUP4 ADD MSTORE PUSH2 0xD8A DUP2 PUSH2 0xC12 JUMP JUMPDEST SWAP1 POP SWAP2 SWAP1 POP JUMP JUMPDEST PUSH1 0x0 PUSH1 0x20 DUP3 ADD SWAP1 POP PUSH2 0xDA6 PUSH1 0x0 DUP4 ADD DUP5 PUSH2 0xC35 JUMP JUMPDEST SWAP3 SWAP2 POP POP JUMP JUMPDEST PUSH1 0x0 PUSH1 0x60 DUP3 ADD SWAP1 POP PUSH2 0xDC1 PUSH1 0x0 DUP4 ADD DUP7 PUSH2 0xC35 JUMP JUMPDEST PUSH2 0xDCE PUSH1 0x20 DUP4 ADD DUP6 PUSH2 0xC35 JUMP JUMPDEST PUSH2 0xDDB PUSH1 0x40 DUP4 ADD DUP5 PUSH2 0xC35 JUMP JUMPDEST SWAP5 SWAP4 POP POP POP POP JUMP JUMPDEST PUSH1 0x0 DUP3 DUP3 MSTORE PUSH1 0x20 DUP3 ADD SWAP1 POP SWAP3 SWAP2 POP POP JUMP JUMPDEST PUSH1 0x0 PUSH2 0xDFF DUP3 PUSH2 0xF4D JUMP JUMPDEST SWAP2 POP PUSH2 0xE0A DUP4 PUSH2 0xF4D JUMP JUMPDEST SWAP3 POP DUP3 PUSH32 0xFFFFFFFFFFFFFFFFFFFFFFFFFFFFFFFFFFFFFFFFFFFFFFFFFFFFFFFFFFFFFFFF SUB DUP3 GT ISZERO PUSH2 0xE3F JUMPI PUSH2 0xE3E PUSH2 0xF57 JUMP JUMPDEST JUMPDEST DUP3 DUP3 ADD SWAP1 POP SWAP3 SWAP2 POP POP JUMP JUMPDEST PUSH1 0x0 PUSH2 0xE55 DUP3 PUSH2 0xF4D JUMP JUMPDEST SWAP2 POP PUSH2 0xE60 DUP4 PUSH2 0xF4D JUMP JUMPDEST SWAP3 POP DUP3 PUSH2 0xE70 JUMPI PUSH2 0xE6F PUSH2 0xF86 JUMP JUMPDEST JUMPDEST DUP3 DUP3 DIV SWAP1 POP SWAP3 SWAP2 POP POP JUMP JUMPDEST PUSH1 0x0 PUSH2 0xE86 DUP3 PUSH2 0xF4D JUMP JUMPDEST SWAP2 POP PUSH2 0xE91 DUP4 PUSH2 0xF4D JUMP JUMPDEST SWAP3 POP DUP2 PUSH32 0xFFFFFFFFFFFFFFFFFFFFFFFFFFFFFFFFFFFFFFFFFFFFFFFFFFFFFFFFFFFFFFFF DIV DUP4 GT DUP3 ISZERO ISZERO AND ISZERO PUSH2 0xECA JUMPI PUSH2 0xEC9 PUSH2 0xF57 JUMP JUMPDEST JUMPDEST DUP3 DUP3 MUL SWAP1 POP SWAP3 SWAP2 POP POP JUMP JUMPDEST PUSH1 0x0 PUSH2 0xEE0 DUP3 PUSH2 0xF4D JUMP JUMPDEST SWAP2 POP PUSH2 0xEEB DUP4 PUSH2 0xF4D JUMP JUMPDEST SWAP3 POP DUP3 DUP3 LT ISZERO PUSH2 0xEFE JUMPI PUSH2 0xEFD PUSH2 0xF57 JUMP JUMPDEST JUMPDEST DUP3 DUP3 SUB SWAP1 POP SWAP3 SWAP2 POP POP JUMP JUMPDEST PUSH1 0x0 PUSH2 0xF14 DUP3 PUSH2 0xF2D JUMP JUMPDEST SWAP1 POP SWAP2 SWAP1 POP JUMP JUMPDEST PUSH1 0x0 PUSH2 0xF26 DUP3 PUSH2 0xF2D JUMP JUMPDEST SWAP1 POP SWAP2 SWAP1 POP JUMP JUMPDEST PUSH1 0x0 PUSH20 0xFFFFFFFFFFFFFFFFFFFFFFFFFFFFFFFFFFFFFFFF DUP3 AND SWAP1 POP SWAP2 SWAP1 POP JUMP JUMPDEST PUSH1 0x0 DUP2 SWAP1 POP SWAP2 SWAP1 POP JUMP JUMPDEST PUSH32 0x4E487B7100000000000000000000000000000000000000000000000000000000 PUSH1 0x0 MSTORE PUSH1 0x11 PUSH1 0x4 MSTORE PUSH1 0x24 PUSH1 0x0 REVERT JUMPDEST PUSH32 0x4E487B7100000000000000000000000000000000000000000000000000000000 PUSH1 0x0 MSTORE PUSH1 0x12 PUSH1 0x4 MSTORE PUSH1 0x24 PUSH1 0x0 REVERT JUMPDEST PUSH1 0x0 DUP1 REVERT JUMPDEST PUSH32 0x4F6E6C79204F776E65722063616E204465706F7369742046756E647320496E20 PUSH1 0x0 DUP3 ADD MSTORE PUSH32 0x436F6E7472616374000000000000000000000000000000000000000000000000 PUSH1 0x20 DUP3 ADD MSTORE POP JUMP JUMPDEST PUSH32 0x416D6F756E74205368756C64206E6F74206265205A65726F20416E64204C6573 PUSH1 0x0 DUP3 ADD MSTORE PUSH32 0x73207468616E20436F6E747261637442616C616E636500000000000000000000 PUSH1 0x20 DUP3 ADD MSTORE POP JUMP JUMPDEST PUSH32 0x4465706F7369742046756E64206D757374206265206772656174657220746861 PUSH1 0x0 DUP3 ADD MSTORE PUSH32 0x6E205A65726F0000000000000000000000000000000000000000000000000000 PUSH1 0x20 DUP3 ADD MSTORE POP JUMP JUMPDEST PUSH32 0x56616C75652053686F756C642062652047726561746572207468616E205A6572 PUSH1 0x0 DUP3 ADD MSTORE PUSH32 0x6F00000000000000000000000000000000000000000000000000000000000000 PUSH1 0x20 DUP3 ADD MSTORE POP JUMP JUMPDEST PUSH32 0x4475726174696F6E2073686F756C642062652031204D6F6E7468206F72206D6F PUSH1 0x0 DUP3 ADD MSTORE PUSH32 0x7265000000000000000000000000000000000000000000000000000000000000 PUSH1 0x20 DUP3 ADD MSTORE POP JUMP JUMPDEST POP JUMP JUMPDEST PUSH2 0x1151 DUP2 PUSH2 0xF1B JUMP JUMPDEST DUP2 EQ PUSH2 0x115C JUMPI PUSH1 0x0 DUP1 REVERT JUMPDEST POP JUMP JUMPDEST PUSH2 0x1168 DUP2 PUSH2 0xF4D JUMP JUMPDEST DUP2 EQ PUSH2 0x1173 JUMPI PUSH1 0x0 DUP1 REVERT JUMPDEST POP JUMP INVALID LOG2 PUSH5 0x6970667358 0x22 SLT KECCAK256 PUSH15 0x3BB0C9D04E4712120888A8E0DA286B PUSH29 0x1EA9D75269A0F34331C010BE88527B64736F6C63430008060033000000 "
		},
		"gasEstimates": {
			"creation": {
				"codeDepositCost": "904800",
				"executionCost": "25208",
				"totalCost": "930008"
			},
			"external": {
				"BankBalance()": "339",
				"CarLoanDetails()": "infinite",
				"DepositBlcToAcc(address)": "infinite",
				"GetHomeLoan(address,uint256,uint256)": "infinite",
				"GetPersonalLoan(address,uint256,uint256)": "infinite",
				"HomeLoanDetails()": "infinite",
				"PesonalLoanDetails()": "infinite",
				"User1()": "infinite",
				"depositToBank()": "2711",
				"getCarLoan(address,uint256,uint256)": "infinite"
			}
		},
		"methodIdentifiers": {
			"BankBalance()": "ae176c86",
			"CarLoanDetails()": "e4511adf",
			"DepositBlcToAcc(address)": "ca3fbf26",
			"GetHomeLoan(address,uint256,uint256)": "1bf481bd",
			"GetPersonalLoan(address,uint256,uint256)": "bc1211d1",
			"HomeLoanDetails()": "04278a77",
			"PesonalLoanDetails()": "911d3d12",
			"User1()": "87d91fa9",
			"depositToBank()": "a1a5ba78",
			"getCarLoan(address,uint256,uint256)": "dc126b66"
		}
	},
	"abi": [
		{
			"inputs": [],
			"stateMutability": "nonpayable",
			"type": "constructor"
		},
		{
			"inputs": [],
			"name": "BankBalance",
			"outputs": [
				{
					"internalType": "uint256",
					"name": "",
					"type": "uint256"
				}
			],
			"stateMutability": "view",
			"type": "function"
		},
		{
			"inputs": [],
			"name": "CarLoanDetails",
			"outputs": [
				{
					"internalType": "uint256",
					"name": "OutstandingLoan",
					"type": "uint256"
				},
				{
					"internalType": "uint256",
					"name": "MonthlyEmi",
					"type": "uint256"
				},
				{
					"internalType": "uint256",
					"name": "NumberOfEMI",
					"type": "uint256"
				}
			],
			"stateMutability": "view",
			"type": "function"
		},
		{
			"inputs": [
				{
					"internalType": "address payable",
					"name": "user_aadress",
					"type": "address"
				}
			],
			"name": "DepositBlcToAcc",
			"outputs": [],
			"stateMutability": "payable",
			"type": "function"
		},
		{
			"inputs": [
				{
					"internalType": "address payable",
					"name": "receiver",
					"type": "address"
				},
				{
					"internalType": "uint256",
					"name": "duration",
					"type": "uint256"
				},
				{
					"internalType": "uint256",
					"name": "amount",
					"type": "uint256"
				}
			],
			"name": "GetHomeLoan",
			"outputs": [],
			"stateMutability": "payable",
			"type": "function"
		},
		{
			"inputs": [
				{
					"internalType": "address payable",
					"name": "receiver",
					"type": "address"
				},
				{
					"internalType": "uint256",
					"name": "duration",
					"type": "uint256"
				},
				{
					"internalType": "uint256",
					"name": "amount",
					"type": "uint256"
				}
			],
			"name": "GetPersonalLoan",
			"outputs": [],
			"stateMutability": "payable",
			"type": "function"
		},
		{
			"inputs": [],
			"name": "HomeLoanDetails",
			"outputs": [
				{
					"internalType": "uint256",
					"name": "OutstandingLoan",
					"type": "uint256"
				},
				{
					"internalType": "uint256",
					"name": "MonthlyEmi",
					"type": "uint256"
				},
				{
					"internalType": "uint256",
					"name": "NumberOfEMI",
					"type": "uint256"
				}
			],
			"stateMutability": "view",
			"type": "function"
		},
		{
			"inputs": [],
			"name": "PesonalLoanDetails",
			"outputs": [
				{
					"internalType": "uint256",
					"name": "OutstandingLoan",
					"type": "uint256"
				},
				{
					"internalType": "uint256",
					"name": "MonthlyEmi",
					"type": "uint256"
				},
				{
					"internalType": "uint256",
					"name": "NumberOfEMI",
					"type": "uint256"
				}
			],
			"stateMutability": "view",
			"type": "function"
		},
		{
			"inputs": [],
			"name": "User1",
			"outputs": [
				{
					"internalType": "address",
					"name": "user",
					"type": "address"
				},
				{
					"internalType": "uint256",
					"name": "UserBlnc",
					"type": "uint256"
				},
				{
					"internalType": "uint256",
					"name": "TotalOutstandingLoan",
					"type": "uint256"
				},
				{
					"internalType": "uint256",
					"name": "PersonalOutstandingLoan",
					"type": "uint256"
				},
				{
					"internalType": "uint256",
					"name": "PersonalEmi",
					"type": "uint256"
				},
				{
					"internalType": "uint256",
					"name": "CarOutstandingLoan",
					"type": "uint256"
				},
				{
					"internalType": "uint256",
					"name": "CarEMI",
					"type": "uint256"
				},
				{
					"internalType": "uint256",
					"name": "HomeOutstandingLoan",
					"type": "uint256"
				},
				{
					"internalType": "uint256",
					"name": "HomeEmi",
					"type": "uint256"
				}
			],
			"stateMutability": "view",
			"type": "function"
		},
		{
			"inputs": [],
			"name": "depositToBank",
			"outputs": [],
			"stateMutability": "payable",
			"type": "function"
		},
		{
			"inputs": [
				{
					"internalType": "address payable",
					"name": "receiver",
					"type": "address"
				},
				{
					"internalType": "uint256",
					"name": "duration",
					"type": "uint256"
				},
				{
					"internalType": "uint256",
					"name": "amount",
					"type": "uint256"
				}
			],
			"name": "getCarLoan",
			"outputs": [],
			"stateMutability": "payable",
			"type": "function"
		}
	]
}